S01900004763634170706C69636174696F6E3130332E73726563F6
S11300000C942A000C9434000C9434000C943400A6
S11300100C9434000C9434000C9434000C9434008C
S11300200C9434000C9434000C9434000C9434007C
S11300300C9434000C9434000C9434000C9434006C
S11300400C9434000C9434000C9434000C9434005C
S11300500C94340011241FBECFE5D8E0DEBFCDBF21
S11300600E943E000C944F000C94000090BD89B98E
S11300701BB888E08AB986E880BD089583E390E0E0
S11300800E94360080E08CB92FEF39E698E12150C8
S113009030409040E1F700C000008F5FF4CFF89447
S10500A0FFCF8C
S9030000FC
